{
  "contractName": "Deed",
  "abi": [
    {
      "inputs": [
        {
          "internalType": "address",
          "name": "_lawyer",
          "type": "address"
        },
        {
          "internalType": "address payable",
          "name": "_beneficiary",
          "type": "address"
        },
        {
          "internalType": "uint256",
          "name": "fromNow",
          "type": "uint256"
        }
      ],
      "stateMutability": "payable",
      "type": "constructor",
      "payable": true
    },
    {
      "inputs": [],
      "name": "beneficiary",
      "outputs": [
        {
          "internalType": "address payable",
          "name": "",
          "type": "address"
        }
      ],
      "stateMutability": "view",
      "type": "function",
      "constant": true
    },
    {
      "inputs": [],
      "name": "earliest",
      "outputs": [
        {
          "internalType": "uint256",
          "name": "",
          "type": "uint256"
        }
      ],
      "stateMutability": "view",
      "type": "function",
      "constant": true
    },
    {
      "inputs": [],
      "name": "lawyer",
      "outputs": [
        {
          "internalType": "address",
          "name": "",
          "type": "address"
        }
      ],
      "stateMutability": "view",
      "type": "function",
      "constant": true
    },
    {
      "inputs": [],
      "name": "withdraw",
      "outputs": [],
      "stateMutability": "nonpayable",
      "type": "function"
    }
  ],
  "bytecode": "0x608060405260405161068a38038061068a83398181016040528101906100259190610197565b826000806101000a81548173ffffffffffffffffffffffffffffffffffffffff021916908373ffffffffffffffffffffffffffffffffffffffff16021790555081600160006101000a81548173ffffffffffffffffffffffffffffffffffffffff021916908373ffffffffffffffffffffffffffffffffffffffff16021790555080426100b29190610219565b60028190555050505061024d565b600080fd5b600073ffffffffffffffffffffffffffffffffffffffff82169050919050565b60006100f0826100c5565b9050919050565b610100816100e5565b811461010b57600080fd5b50565b60008151905061011d816100f7565b92915050565b600061012e826100c5565b9050919050565b61013e81610123565b811461014957600080fd5b50565b60008151905061015b81610135565b92915050565b6000819050919050565b61017481610161565b811461017f57600080fd5b50565b6000815190506101918161016b565b92915050565b6000806000606084860312156101b0576101af6100c0565b5b60006101be8682870161010e565b93505060206101cf8682870161014c565b92505060406101e086828701610182565b9150509250925092565b7f4e487b7100000000000000000000000000000000000000000000000000000000600052601160045260246000fd5b600061022482610161565b915061022f83610161565b9250828201905080821115610247576102466101ea565b5b92915050565b61042e8061025c6000396000f3fe608060405234801561001057600080fd5b506004361061004c5760003560e01c806338af3eed146100515780633bfb6e311461006f5780633ccfd60b1461008d5780635dd65d3b14610097575b600080fd5b6100596100b5565b6040516100669190610284565b60405180910390f35b6100776100db565b60405161008491906102c0565b60405180910390f35b6100956100ff565b005b61009f61023d565b6040516100ac91906102f4565b60405180910390f35b600160009054906101000a900473ffffffffffffffffffffffffffffffffffffffff1681565b60008054906101000a900473ffffffffffffffffffffffffffffffffffffffff1681565b60008054906101000a900473ffffffffffffffffffffffffffffffffffffffff1673ffffffffffffffffffffffffffffffffffffffff163373ffffffffffffffffffffffffffffffffffffffff161461018d576040517f08c379a00000000000000000000000000000000000000000000000000000000081526004016101849061036c565b60405180910390fd5b6002544210156101d2576040517f08c379a00000000000000000000000000000000000000000000000000000000081526004016101c9906103d8565b60405180910390fd5b600160009054906101000a900473ffffffffffffffffffffffffffffffffffffffff1673ffffffffffffffffffffffffffffffffffffffff166108fc479081150290604051600060405180830381858888f1935050505015801561023a573d6000803e3d6000fd5b50565b60025481565b600073ffffffffffffffffffffffffffffffffffffffff82169050919050565b600061026e82610243565b9050919050565b61027e81610263565b82525050565b60006020820190506102996000830184610275565b92915050565b60006102aa82610243565b9050919050565b6102ba8161029f565b82525050565b60006020820190506102d560008301846102b1565b92915050565b6000819050919050565b6102ee816102db565b82525050565b600060208201905061030960008301846102e5565b92915050565b600082825260208201905092915050565b7f4c6177796572206f6e6c79000000000000000000000000000000000000000000600082015250565b6000610356600b8361030f565b915061036182610320565b602082019050919050565b6000602082019050818103600083015261038581610349565b9050919050565b7f546f6f206561726c7920746f2077697468647261770000000000000000000000600082015250565b60006103c260158361030f565b91506103cd8261038c565b602082019050919050565b600060208201905081810360008301526103f1816103b5565b905091905056fea26469706673582212205f1243d75e4644b2fc348fb1627a32744be7868d85b3b84ab836d0a313456cd264736f6c63430008130033",
  "immutableReferences": {},
  "source": "// SPDX-License-Identifier: MIT\npragma solidity ^0.8.19;\n\ncontract Deed {\n    address public lawyer;\n    address payable public beneficiary;\n    uint256 public earliest;\n\n    constructor(\n        address _lawyer,\n        address payable _beneficiary,\n        uint fromNow\n    ) payable {\n        //argument same as the money sent\n        lawyer = _lawyer;\n        beneficiary = _beneficiary;\n        earliest = block.timestamp + fromNow;\n    }\n\n    function withdraw() public {\n        require(msg.sender == lawyer, \"Lawyer only\");\n        require(block.timestamp >= earliest, \"Too early to withdraw\");\n        //sending everything to the beneficiary\n        beneficiary.transfer(address(this).balance);\n    }\n}\n",
  "sourcePath": "/Users/mariaso/Blockchain projects/deed-blockchain/contracts/Deed.sol",
  "compiler": {
    "name": "solc",
    "version": "0.8.19+commit.7dd6d404.Emscripten.clang"
  },
  "schemaVersion": "3.4.6",
  "updatedAt": "2024-07-04T20:57:42.757Z",
  "networkType": "ethereum",
  "devdoc": {
    "kind": "dev",
    "methods": {},
    "version": 1
  },
  "userdoc": {
    "kind": "user",
    "methods": {},
    "version": 1
  }
}